:020000040800F2
:10000000F8070020D500000825170008B7150008DC
:1000100000000000000000000000000000000000E0
:10002000000000000000000000000000FF180008B1
:1000300000000000000000006D170008A91900086A
:100040000501000805010008050100080501000878
:100050000501000805010008050100080501000868
:100060000000000005010008050100082505000842
:100070000501000805010008000000000501000856
:100080000000000000000000000000000000000070
:100090000501000800000000000000000501000844
:1000A0000000000005010008000000000000000042
:1000B000591E0008050100080000000000000000B3
:1000C0000348854600F010FA00480047A3220008C4
:1000D000F80700200C4880F308880C480168090ED6
:1000E0000B4A914205D10B480B4901600B480C4962
:1000F00001600C4880470C480047FEE7FEE7FEE73A
:10010000FEE7FEE7FEE70000F8070020040000001D
:100110001F000000341002400100000000000140F8
:10012000000000003D1A0008C100000830B50B4671
:10013000014600202022012409E00D46D5409D42C1
:1001400005D31D469540491B254695404019154647
:10015000521E002DF1DC30BDF0B51FB40646002064
:1001600082B005464024019100901BE0019922468F
:100170000F46304600F066F9049A059B801A9941B3
:1001800010D310461946224600F04CF9361A8F411A
:100190000197224601200021009F00F043F9381802
:1001A0004D4100902046641E0028DFDC019B009832
:1001B0002946324607B0F0BDD2B201E00270401CC1
:1001C000491EFBD270470022F6E710B513460A46D7
:1001D00004461946FFF7F0FF204610BD30B505462E
:1001E0002A460B4610781C78521C5B1C002801D054
:1001F000A042F7D0002C03D0002802D06D1CEFE7FE
:10020000284630BDF8B502464A40D40F42004B00A4
:1002100052085B089A4202D20246084611464A003A
:1002200023D0C30D4A00DDB2120EAD1A202D35DAEF
:1002300049020126490AF6058A19002C00D05242CB
:1002400020214F1B1146B9402A411018C20D9A4275
:1002500021D0002C17D0012D08DCDA05801AD20F2E
:100260008019D207DBB200F006F9F8BDDA05801A72
:10027000012340001B06C01880185A428018CA0F7C
:100280001043490007E04908C2071143DA05801A04
:1002900080194008801800F0E6F8F8BD61000122DE
:1002A000511A001BF7E70122D2075140AAE70122A9
:1002B000D2075040A6E7024670B54A40D30FDB078D
:1002C00040002DD04A002AD0010E140E0002120266
:1002D0000919400A520A8418E50104465443000AE9
:1002E000120A2E045043A4194219200CC543AA181F
:1002F000120C0125AD03521C521912047F3924043B
:1003000000D0521C104301D44000491EC2B20C065A
:10031000C0092018401C4008802A02D003E00020B9
:1003200070BD40084000002900DA0020184370BD6D
:1003300070B502464A40D50F40004A00ED0740081C
:100340005208002814D0002A12D0C40DD30D410247
:100350000120C0055202490A520AE41A091812186B
:100360007D34914201D3641C00E04900002C01DA85
:10037000002070BD0023914201D3891A0343400835
:1003800049000028F7D100290AD0914202D1012169
:10039000C90705E0914201D2012101E00121C943D1
:1003A000E005C018401900F05EF870BD420005D0AD
:1003B0004200120E52428A4201DB00207047C905FA
:1003C0000818704710B500229623114600F053F824
:1003D00010BD410040020122400AD205090E8018DA
:1003E0007F2901DA00207047962903DC9622511AF2
:1003F000C840704796398840704700000122D207F4
:10040000002800DB101A002900DB511A81427047D6
:100410000122D207002800DB101A002900DB511A44
:100420008842704710B5202A04DB0146203A9140EB
:10043000002010BD914020239C1A0346E34019433D
:10044000904010BD10B5202A04DB0846203AD04069
:10045000002110BD0B46D340D0402024A21A914069
:100460000843194610BD002904DA401C490001D197
:1004700040084000704770B40024050C05D11024DA
:10048000000402D1002921D01124050E01D100025F
:100490000834050F01D10001241D850F01D1800012
:1004A000A41C002801DB4000641C002908D0202582
:1004B0002E1B0D46F540A14000D0012129430843E1
:1004C00001061B1B000ADB1D02D5002070BC704713
:1004D000DB05181880180029F8DA401C4900F5D10E
:1004E00070BC400840007047064C0125064E05E0F0
:1004F000E36807CC2B430C3C98471034B442F7D345
:10050000FFF7E2FDE82200080823000810B501F01B
:100510002EF900F026F810BD10B501F02EF900F00C
:1005200021F810BD10B5024800F076F810BD0000AB
:10053000D000002030B5446C1C252C400125A5407E
:10054000046C6560046863608368102B036803D0E3
:1005500099600068C26030BD9A600068C16030BDBB
:10056000704770471CB513A001F0BAFC7F24E40566
:10057000002813D0114901200A7890430870FF2108
:1005800000280194009102D0FF231A4610E0FF23B7
:100590001A460221FF2001F00DFD1CBD08A001F04C
:1005A0009FFC0028F9D000200346024601940090E9
:1005B0000021EFE74C45444F70656E0010000020AD
:1005C0004C4544436C6F73650000000070B5002417
:1005D000014620314A79022A03D00421C163012453
:1005E00018E0026813680E25AB43136002681368B5
:1005F0005B085B001360436C1C221340012215460C
:100600009D40036C5D604A7100220A71816B002974
:1006100000D08847204670BDF0B4016C0D680168B9
:100620000C68466C1C2304221E401746B7402F421C
:100630000ED067070CD50C68A40602D40C6894434E
:100640000C60416C19408A40016C4A60016B1AE0F1
:100650000227B74002462F402032002F17D0A707AD
:1006600015D50C68A40605D40C680A25AC430C60AB
:1006700001215171446C02211C40036CA14059605E
:1006800000211171C16A002918D0F0BC0847082761
:10069000B7402F4212D0240710D50C680E25AC436A
:1006A0000C60446C01211C400B46A340046C636049
:1006B000C163517100211171416BE4E7F0BC7047D7
:1006C00070B504003CD01F48256814212818FFF796
:1006D0002DFD800060641C482064022120462030EB
:1006E0000246417129681948E3680140A0686669BB
:1006F0001843236933431843A3691843E369184334
:10070000236A1843084328600121A06889038842AE
:1007100010D00D488030836A656C1C210D400F2677
:10072000AE40B3438362656C63680D40816AAB4041
:100730000B4383620020E06301215171107170BD91
:10074000012070BDF8FFFDBF000002400F80FFFFD9
:10075000F8B504468C46203001790025012909D0DE
:100760000126067141790027012905D0077102256C
:100770002846F8BD0220F8BD02214171E7632068D8
:10078000016849084900016061462046FFF7D2FE32
:10079000206B00282068016801D00E2205E00422A9
:1007A00091430160206801680A22114301602068BA
:1007B000016831430160DBE7FCB50023012498E0C8
:1007C00027462A469F403A406FD04D68012D05D0FC
:1007D000022D03D0112D01D0122D16D185680326CC
:1007E000AC465D00AE46AE406546B543AC46CE680D
:1007F0007546AE4065462E43866046680D79BE4319
:10080000ED06ED0F9D4035434560C6685F0003254A
:10081000BD40AE46AE4335468E68BE402E43C660F0
:100820004E68022E01D0122E14D1DE08B600361802
:100830000196366A5D07B446EE0E0F25B540009668
:100840006646AE43B4460D69009EB54066462E43EB
:10085000019D2E6206687546AE430D79AD07AD0F5A
:10086000BD40354305604D68ED0041D5244D6E6BAC
:1008700026436E639E08234DB6007519AC46AD68DD
:100880009E07360F0F27B740BD4305273F07B842E5
:1008900001D100270BE01C4FB84201D1012706E02F
:1008A0001A4FB84202D1022701E021E00627B740E3
:1008B0002F436546AF60164D2E684F689643FF0381
:1008C00000D516432E606E684F689643BF0300D56F
:1008D00016436E60AE684F689643FF0200D516431C
:1008E000AE60EE684F689643BF0200D51643EE60D7
:1008F0005B1C0A681546DA4000D061E7FCBD0000C9
:1009000000100240000001400004005000080050A8
:1009100000040140002A01D0816170478162704764
:10092000014880687047000000000020024881688C
:1009300002788918816070470000002010B50A49CC
:10094000002408684022104308600868022210430F
:100950000860204600F00AF8002801D0012401E0D8
:1009600000F026F8204610BD0020024070B5044675
:100970000D4D7D202978C000FFF7D8FB01460B48BC
:100980000068FFF7D3FB00F0E9FC002809D1042C34
:1009900007D200222146401E00F020F800206C60A3
:1009A00070BD012070BD0000000000200C00002080
:1009B0000448416B012211434163816B02041143DE
:1009C0008163704700100240C106C90E01208840B3
:1009D000014908607047000000E100E010B500F038
:1009E000A3FE10BDF8B5044600784F4D800672D5C1
:1009F0004D4E0027403EB06BC00004D4B06BA9053B
:100A00000843B063012749480168C90511D401684A
:100A1000821511430160FFF783FF009005E0FFF7A7
:100A20007FFF0099401A642837D840480068C00505
:100A3000F5D532680321090560680A4001409142FA
:100A400008D08103890F032904D13168890301D5B6
:100A50000120F8BD2A69032109040A4022D0084078
:100A600090421FD0207880061CD528692A698843C7
:100A70000121C9040A432A612A698A432A6128613B
:100A8000C0050FD5FFF74CFF009008E0FFF748FFC7
:100A90000099411A2648814201D90320F8BD2869EE
:100AA0008005F3D561688803800F032805D132687B
:100AB0000005824301400A433260286903226168CD
:100AC0001204114008432861002F04D0B16B0120AB
:100AD00000078143B1632078800705D5E8680C21C1
:100AE0008843A1680843E8602078400706D5E86895
:100AF000032189028843E1680843E8602078000701
:100B000006D5E86803210903884321690843E860A2
:100B10002078000606D5E8680321890488436169C6
:100B20000843E8600020F8BD40100240007000401B
:100B300088130000F8B50E4605007DD053480068C4
:100B4000C007C00FB0420AD25048016849084900A6
:100B5000314301600068C007C00FB04271D12878EE
:100B60004B4C800705D5E068F0218843A96808430D
:100B7000E0602878C00752D06868022817D00328A0
:100B800018D02168012818D08905002959DAE168B0
:100B9000890889000143E160FFF7C2FE69680746E2
:100BA000022912D003291CD0012926D033E0216864
:100BB0008903EAE721688901E7E74907E5E7FFF7E5
:100BC000AFFEC11B3348814223D8E0680007800F85
:100BD0000228F4D123E0FFF7A3FEC11B2D48814278
:100BE00017D8E0680007800F0328F4D117E0FFF75B
:100BF00097FEC11B274881420BD8E0680007800F91
:100C00000128F4D10BE0FFF78BFEC11B2148814284
:100C100001D90320F8BDE0680007800FF3D11B481D
:100C20000168C907C90FB1420DD9016849084900D7
:100C300031430160006800E003E0C007C00FB0422C
:100C400001D00120F8BD2878400706D5E0680721CB
:100C500009028843E9680843E0602878000707D55F
:100C6000E0680721C90288432969C9000843E06098
:100C700000F036F8E168084A0906090F515CC840DF
:100C8000064908600020FFF771FEF8BD0020024011
:100C90000010024088130000C42200080C0000204D
:100CA000044805490068C968044A4905490F515C70
:100CB000C84070470C00002000100240DD220008F0
:100CC000044805490068C968044A8904490F515C11
:100CD000C84070470C00002000100240DD220008D0
:100CE00010B5184AD1680C20084004280BD00828F9
:100CF00010D00C2810D050680004410F0120C00310
:100D0000491C884010BD1068C00601D50E4810BDB2
:100D10000E4810BD0E4810BD88020E4B000F185C27
:100D20000902D368890F491CDB0301D5084A05E095
:100D30001268D20601D5044A00E0044A5043FFF786
:100D4000F5F910BD0010024000093D000024F40038
:100D500000127A00D4220008FEB505007ED0FE4CB9
:100D6000E7680C20E6680740012000040640287868
:100D7000C00747D0082F05D00C2F0AD1012000044E
:100D8000864206D1206880033CD568680028E5D0FB
:100D900038E0012069680004814203D121680143E1
:100DA000216011E0052301221B049204994221686D
:100DB00002D111432160F1E78143216021680140A4
:100DC0000091206890432060686800280DD0FFF7EC
:100DD000A7FD009005E0FFF7A3FD0099401A6428E5
:100DE0007ED820688003F6D50CE0FFF799FD0090CF
:100DF00005E0FFF795FD0099401A6428F0D82068B7
:100E00008003F6D4287880075CD5E868810604D58D
:100E1000226820210A43226088430923042F0DD031
:100E20000C2F01D1002E09D000283BD02168994316
:100E300001432160FFF774FD064627E0216849075A
:100E400001D500288AD061681F22120291432A69C5
:100E50001202114361602168994300E08EE1014371
:100E60002160FFF73DFFE16809060A0FBB49895C75
:100E7000C840BB4908600020FFF778FD002873D107
:100E800020E0FFF74DFD801B0228A9D8206840070D
:100E9000F7D560681F2109028843296909020843C0
:100EA00060600FE02068400840002060FFF738FDD8
:100EB000064604E0FFF734FD801B022890D8206826
:100EC0004007F7D42878C00660D5002F0DD0A86958
:100ED00000284AD02068FF2101310843206000E04B
:100EE000C4E0FFF71DFD06462CE02068800502D512
:100EF000A8690028A6D06068072149038843296AA9
:100F0000084360606068297F0002000A0906084300
:100F10006060286A410B0120C003491C8840E168D9
:100F200009060A0F8D49895CC8408D490860002078
:100F3000FFF71CFD002817D128E0FFF7F1FC801B0C
:100F40000228A2D820688005F7D5606807214903E8
:100F50008843296A084360606068297F0002000AAC
:100F600009060843606011E0E1E02168FF200130DC
:100F700081432160FFF7D4FC064604E0FFF7D0FC74
:100F8000801B022872D820688005F7D42878754E17
:100F9000000724D568690028306910D00121084372
:100FA0003061FFF7BDFC009005E0FFF7B9FC009948
:100FB000401A02285AD830698007F6D50FE0400859
:100FC00040003061FFF7ACFC009005E0FFF7A8FCA3
:100FD0000099401A022849D830698007F6D4287849
:100FE000400765D500200290A06BC00006D4A06B1E
:100FF000012109070843A063012002905A480168B3
:10100000C90511D40168821511430160FFF788FCFE
:10101000009005E0FFF784FC0099401A642825D869
:1010200051480068C005F5D5FF20AA68013082420A
:1010300003D131690143316111E001218902002AA4
:1010400007D005231B029A4203D132690A43326159
:10105000EFE7326982433261306988433061A868C2
:1010600000280FD0FFF75CFC009007E05EE0FFF780
:1010700057FC0099411A3D48814257D83069800594
:10108000F5D50DE0FFF74CFC009006E0FFF748FCBB
:101090000099411A3548814248D830698005F5D415
:1010A0000298002804D0A16B012000078143A163AE
:1010B000686A002864D00C2F3ED00126360602282C
:1010C000206805D0B0432060FFF72AFC05462FE0DA
:1010D000B0432060FFF724FC074604E0FFF720FC44
:1010E000C01B022822D820688001F7D4E96AA86AC8
:1010F000E2680843296BFD231B049A43114308430C
:10110000E060206830432060FFF70AFC054604E0F9
:10111000FFF706FC401B022808D820688001F7D59D
:101120002EE0FFF7FDFB401B022801D90320FEBD86
:1011300020688001F5D423E00128F8D0E06801217F
:101140000904AA6A0140914218D10F218904EA6A70
:101150000140914212D10BE000100240C42200086D
:101160000C00002040100240007000408813000076
:10117000032189050840296B884201D00120FEBD6A
:101180000020FEBD704770B5040007D0002625463C
:101190004035A662687C002802D005E0012070BDC1
:1011A0002E74204600F02AF8022068742068016836
:1011B000402291430160A168606822690843E168A8
:1011C00011430843616901220843A1695202114099
:1011D0000843E1690843216A0843A16A084321687A
:1011E0000860A0690421000C0840616A0843216876
:1011F0004860666501206874002070BDF0B587B056
:10120000054614216846FEF7DEFF1C49286888421F
:1012100032D11B49486B8A1410434863C86A0126BF
:101220003043C862C86A002730400590A020009073
:10123000022001900320039005200297694604973D
:101240000007FFF7B9FA0F480F4C41C41020676040
:1012500020608020A0604000E06080006761206125
:10126000C000A0610848083CFFF72AFA002801D016
:10127000FFF776F9AC64A56207B0F0BD003001401D
:101280000010024058000240D0000020F8B505468A
:1012900004464035287C0026012806D001272F74FB
:1012A000687C012803D002264BE00220F8BD00290B
:1012B00033D0002A31D00320687400206065216398
:1012C000A286E286A06360642064A087E087012292
:1012D000A168D203914205D121680A6801239B03CA
:1012E0001A430A60A26C19491163A26C1849D162B1
:1012F000A26C18495163A16C8863E38E2268216B4C
:101300000C32A06CFFF724FA002808D0606D102181
:101310000843606501266F7413E0012611E0206820
:101320000168490603D40168402211430160206826
:101330004168202211434160206841680222114324
:101340004160002028743046F8BD0000BF17000837
:10135000C91700089D17000870477047094910B564
:10136000401E884201D9012010BD074C6061032155
:10137000081F00F0D9F90020A0610720206100209B
:1013800010BD0000FFFFFF0000E000E07047704765
:10139000F8B502680446D0691168936805072D0FF7
:1013A0005BD0DD07ED0FFF2621360E402E4367D0C0
:1013B000C60706D0CE0504D501261662E26F324379
:1013C000E267870702220426002F06DADF0704D02F
:1013D00027683A62E76F3743E767470706D5DB07B9
:1013E00004D023681E62E36F1343E367020709D545
:1013F00020220A402A4305D0236808221A62E36F9C
:101400001343E367E26F002A2FD0800606D58806D3
:1014100004D5216E002901D020468847E06F21685D
:101420008968490601D4000724D5204600F0D0FB86
:1014300020688168490619D58168402291438160FE
:10144000E06E002812D020498163E06EFFF7BEF8FD
:1014500000280AD0E06E816B06E0850610D58D0667
:101460000ED5216E1CE020468847F8BD2046FFF7C8
:101470008EFFF8BD2046FFF78AFF0020E067F8BD29
:10148000C50208D55B0206D5012000051062204682
:10149000FFF77CFFF8BD030605D50B0603D5616E8B
:1014A0000029E0D1F8BD4006FCD54806FAD51368FE
:1014B000204640218B431360202161670021616633
:1014C00000F078F8F8BD0000BD1B000810B504005E
:1014D00003D0606F002802D007E0012010BD00217A
:1014E00070200155204600F027F82420606720680E
:1014F0000168490849000160204600F079FB012895
:10150000ECD0606A002802D0204600F0C1FA2068C2
:1015100041680922D20291434160206881682A22F1
:1015200091438160206801680122114301602046D7
:1015300000F014FB10BD000010B586B00446142165
:101540006846FEF740FE1849206888422AD11748AD
:10155000816B0122520411438163C16A012211434C
:10156000C162C06A694610400590032040020090A5
:101570000220019000200290032003900420049098
:1015800005200007FFF718F9002211461C20FFF77D
:1015900025FA1C20FFF718FA054800680168202288
:1015A0001143016006B010BD00440040001002402D
:1015B000180100207047FEE710B5024800F01AF845
:1015C00010BD00001400002002220270418070470C
:1015D0004178002904D000214170C26808461047B4
:1015E0000121F9E7017A1822514302694369104643
:1015F0001847000010B5074982680B689A1A43889B
:101600009A4206D3096881600178022901D1FFF767
:10161000DFFF10BD5400002008B50848016B01220F
:1016200011430163006B10400022009011460B2013
:10163000FFF7D4F90B20FFF7C7F908BD00100240EF
:1016400070B586B014216846FEF7BDFD1348C26A26
:1016500004210A43C262C26A0A400592C16A012497
:101660002143C162C16A21400591C16A0225294313
:10167000C162C06A0A4E284005902246294630467B
:10168000FFF748F900200390019469460095029401
:101690003046FFF791F806B070BD00000010024020
:1016A0000004005010B510480E490160FF210531BB
:1016B00041600121C90381600911C160002101223B
:1016C0000161520282614161016208224162C2618C
:1016D00081620721C162FFF756FD002801D0FEF7A5
:1016E0003FFF10BD003001407800002010B50C48CD
:1016F0000A490160E1214902416000218160C16025
:1017000001618161C1610C22016242614162FFF7A6
:10171000DDFE002801D0FEF723FF10BD004400408D
:1017200018010020704700008307FF22DB0E9A405B
:101730008907090E994000280BDA0007000F0838C6
:10174000830808489B001818C36993430B43C3617F
:101750007047830804489B001B181868904308438F
:101760001860704700ED00E000E400E0704710B53D
:101770007D20C00000F0CEF810BD10B500F060FC78
:10178000FFF71AFF10BD00000A4610B501460248D7
:10179000FFF77CFD10BD00007800002010B5806AC6
:1017A00001684A68920892004A60416D1022114314
:1017B0004165012251210A54FFF7E4FC10BD10B528
:1017C000806AFFF7CAFD10BD38B50546846AFFF789
:1017D000A7F8024628680068800625D4206841687A
:1017E0002025A94341602068416802239943416054
:1017F0006421204600F01CF8002802D0606D2843C8
:101800006065A0680021002803D12068C268806854
:101810000090E186012151200155606D002803D020
:101820002046FFF7AFFC38BD2046FFF795FD38BDD9
:1018300038B504464068FF2305332025984204D17B
:1018400000920B460022802107E05120005D052810
:101850000DD100920B4600220121204600F009F82C
:10186000002804D0606D28436065032038BD002047
:1018700038BDF8B51D4617460E46044609E0681CFB
:1018800007D0FFF74DF80699401AA8420BD2002D59
:1018900009D020688168304688432ED00020B842A5
:1018A000EDD10020F8BD20684168E02291434160FD
:1018B0006068C11FFD390CD10121A068C9038842AD
:1018C00002D04911884204D1206801684022914326
:1018D00001600120A16A4003814207D121680A68A2
:1018E00082430A6021680A6802430A60012040348A
:1018F0006074002020740320F8BD0120CFE77047FA
:1019000010B5024602210248FFF704F810BD00009E
:101910000004005010B501460148FFF755FE10BD08
:1019200014000020F0B50024182569431D46E54049
:10193000ED0702D07F252D0201E007252D030F1BA7
:101940007F000E370669641CE4B2F553082CEDD312
:101950007F2500232D02072424031646DE40F607C8
:10196000066904D0CF1A7F001E37F55303E0CF1A63
:101970007F001E37F4535B1CDBB2082BEDD3002233
:10198000059BD340DB07036904D08E1A76002E3600
:101990009D5303E08E1A76002E369C53521CD2B211
:1019A000082AEDD3F0BD000010B505480168491CB8
:1019B000016004480168491C0160FEF7B7FF10BDD3
:1019C000580000205400002030B599B034216846FA
:1019D000FEF7F9FB14210DA8FEF7F5FB182112A85C
:1019E000FEF7F1FB144801680322D2029143C214AE
:1019F00089180160022501200390082009950490B0
:101A0000C0030B900001009500240C900A946846D6
:101A1000FFF7A2F90F200D9003200E900F94109461
:101A2000012111940DA8FFF785F812A812951494BE
:101A3000FEF7D8FF19B030BD0070004010480168B3
:101A4000821511430160C1680E4A1140C1600168EE
:101A50000D4A1140016081684908490081600168B0
:101A60000122920491430160C168FD221204914356
:101A7000C160002101610549C00388607047000012
:101A8000001002400C40FF88F6FFF6FE00ED00E07B
:101A900010B5818CC90707D001684A6801235B042F
:101AA0009A43836A1A434A60818C890707D5016883
:101AB0004A6801231B049A43C36A1A434A60818C13
:101AC000490707D501684A6801239B049A43036BC1
:101AD0001A434A60818C090707D501684A680123C7
:101AE000DB039A43436B1A434A60818CC90607D5CE
:101AF0000268916801231B039943836B194391602A
:101B0000818C890607D501688A6801235B039A43A3
:101B1000C36B1A438A60818C490612D503685A68E0
:101B200001210905046C8A4322435A60026C8A42EF
:101B300007D10268516803235B059943436C19433D
:101B40005160818C090607D501684A680123DB04CE
:101B5000806C9A4302434A6010BD0000F8B500262D
:101B60000446C667FEF7DCFE054620680068124F93
:101B7000000709D501212B46002249052046009780
:101B800000F038F900280DD12068006840070BD517
:101B900001212B46002289052046009700F02AF9F2
:101BA000002801D00320F8BD20206067A0676034C2
:101BB00026740020F8BD0000FFFFFF0110B5806A09
:101BC0000022014640314A834A82FFF7E0FB10BD04
:101BD00001680A68FF2321339A430A6001688A6812
:101BE000520852008A6020218167002101667047F7
:101BF000F8B504462669A268E76932436669102091
:101C000000253E432368324370491E68704F3E40B2
:101C100016431E602268536803263603B343E66802
:101C2000334353602368A2698B4201D0266A324352
:101C30009E680B273F02BE4316439E60654E236895
:101C4000654AB3420AD1D2680C26324026D0042A13
:101C500028D0082A24D00C2A10D10EE08B420DD1B6
:101C6000D66803229202164018D001229202B61AB8
:101C700018D0B61A14D0964200D10820564A012630
:101C8000403A564FF6038B4236D100280CD002283A
:101C90000DD0042812D008281FD11CE00020EDE749
:101CA0000220EBE70420E9E7FEF7FAFF08E01068FE
:101CB000C00601D5384605E0494803E0FFF710F8B3
:101CC000002873D0626851005118814205D8110371
:101CD000814202D303E03046F4E7012566E0010EBD
:101CE00006025008002330185941FEF735FA032147
:101CF0000902411A3B4A55E0E169B14232D1030081
:101D000000F0B3FA09070A0D06250606062B0600A1
:101D1000E3E7FEF7C5FF1CE0FEF7D2FF19E010680D
:101D20006168C00602D548082F4A01E02F4A4808DA
:101D30008018FEF7FBF980B201462D4A1039914216
:101D4000CBD8511C01400007400F08432CE0FEF7A0
:101D5000C7FF616840004A08EAE761680122480855
:101D60001204E5E7030000F080FA09070A0D0626D1
:101D70000606062C0600B0E7FEF792FF1DE0FEF710
:101D80009FFF1AE010686168C00602D54808C019B4
:101D900002E013484A081018FEF7C8F980B201465D
:101DA000134A1039914298D82168C86000202066F3
:101DB00060662846F8BDFEF793FF61684A08801800
:101DC000EAE7616848088019E6E70000004800403B
:101DD000F369FFEF004400404010024000093D005D
:101DE0000024F400FFFC0F0000127A000048E80114
:101DF000EFFF0000FFB581B017460E4604460A9D6E
:101E000009E0681C07D0FEF78BFD0499401AA84230
:101E10000CD8002D0AD02068C1693046884318D0FC
:101E20000020B842EDD0002005B0F0BD2068016868
:101E3000FF22A1329143016020688168490849006E
:101E4000816020206067A067002060342074032038
:101E5000EAE70120E5E7000010B500F013F80248BA
:101E6000FFF796FA10BD00001801002010B53221CE
:101E70000348FEF7A8F902490020888610BD00003B
:101E80009801002070B5144D2868C169134C89066B
:101E90000DD5A18E322908D2406A0006000E06D068
:101EA0006054A08E401CA08601E0FFF7DFFF296888
:101EB000C869000609D5E08E228F904206D2074AF3
:101EC0003232825C401CE0868A6270BD08688022E3
:101ED0009043086070BD00001801002098010020A8
:101EE00010B501460448FEF779F9002802D0FFF743
:101EF000BDFF012010BD000098010020F8B5064686
:101F000000252AE02C461421F0684C43015D00298D
:101F100002D0042913D10EE0211D415C621C8154C2
:101F2000F068611D415CA21C8154A11DF068E21C97
:101F3000415C815403E02946304600F0A5F8F06882
:101F4000E11C415C0091A11C435C641C025D2946BC
:101F50003046FFF7E7FC6D1CEDB2307AA842D1D8CD
:101F60003046FFF73FFBF8BD7FB508AC70CC039659
:101F70006E4638C613460A460146024800F022F96A
:101F80007FBD00002400002008B5009313460A46D8
:101F90000146024800F017F908BD000024000020A7
:101FA0000A4610B50146024800F02EF910BD0000A7
:101FB0002400002070B5064C059E049D2080A17071
:101FC000E27023716571A66000F012F870BD000028
:101FD0003C0000201CB5009313460A46049C0146B1
:101FE0000194024800F040F91CBD000024000020CC
:101FF000FEB51248014685780888CC780A794B7975
:10200000002D0BD08968012D0CD0022D13D0032D8B
:1020100003D100912146FFF7DDFFFEBD2146FFF70A
:10202000B3FFFEBD0026F64300256F4662C721467A
:10203000FFF79AFFFEBDFFF7B3FFFEBD3C00002097
:1020400010B5024800F004F810BD00002400002084
:1020500070B504460A4D00680A49FEF72CF9064699
:1020600060682968081AFEF7ADF93146FEF7D0F925
:1020700004D8286860602046FFF740FF70BD00006C
:102080005800002000007A44F3B585B00646C768C2
:10209000069C1420444320460B30224602900C320A
:1020A000385C151D019243497A590092002802D0EC
:1020B00001280FD01DE03068FEF7FDF8019979582E
:1020C000FEF736F90021C943FEF770F90099FEF7D3
:1020D00099F80DE03068FEF7EEF801997958FEF7AF
:1020E00027F90021C943FEF761F90099FEF7DFF8EF
:1020F0007851F068069F142341592F4A5F430A37ED
:10210000914203DB0299012242540AE00122D205E6
:10211000914206DA029A00218154F168C85D401CA0
:10212000C855F0680190C05D810024484058009077
:102130000002000EFEF746F9024601984559104686
:102140002946FEF7B8F81E49FEF7F2F8039000980A
:102150000004000EFEF736F92946FEF7ACF81849E0
:10216000FEF7E6F802900098C0B2FEF72BF9294678
:10217000FEF7A1F81249FEF7DBF805460398FEF7D3
:1021800028F901460198621C81540298FEF721F952
:10219000F268A11C50542846FEF71BF9F168E41CB4
:1021A0000855F068C15D072901D30021C15507B06A
:1021B000F0BD000000007A4400007A435C0000207B
:1021C00000007F437047F0B500249E4694462746A2
:1021D00016E00A46E240D20710D014262546C2680F
:1021E00075435755C26863462E1D93556E1DC268D0
:1021F00073469355C668059AAD1D7255641CE4B2CA
:10220000027AA242E5D8F0BDF7B50F460646002592
:1022100026E03846E840C00720D02C461421F0685C
:102220004C43015D042906D121460C3140580299E6
:10223000FEF7E4F812D0F168042008552146F26850
:1022400002980C3150502246F16800200B3288541D
:10225000F168521D8850F1680A3408556D1CEDB2C2
:10226000307AA842D5D8FEBD704730B47446641E9B
:102270002578641CAB4200D21D46635D5B00E31809
:1022800030BC184702E008C8121F08C1002AFAD162
:1022900070477047002001E001C1121F002AFBD1E6
:1022A0007047FEF74BFBFFF78FFBFFF7C9F9FFF70E
:1022B000B3F9FFF7F7F9FFF719FAFEF727F9FEF779
:1022C0002BF9FCE7000000000000000001020304FD
:1022D00006070809030406080C1018203000000047
:1022E0000001020304000000082300080000002091
:1022F0007800000084220008802300087800002075
:102300008007000094220008010000000400000083
:10231000000000000000200000000000000000009D
:102320000100000000000000011900080AD7233C4A
:10233000000000000800000054030020D20100202B
:1023400089170008FF0001FFFFFF00000000803F29
:10235000FF0001FFFFFF00000000803F00000000C1
:10236000000000000000FF0000A5FF0000FFFF00CC
:1023700000FF0000FF7F0000FF000000FF008B0057
:04000005080000C12E
:00000001FF
